{
	"_format": "hh-sol-artifact-1",
	"contractName": "Reflow",
	"sourceName": "contracts/Reflow.sol",
	"abi": [
		{
			"inputs": [],
			"stateMutability": "nonpayable",
			"type": "constructor"
		},
		{
			"inputs": [],
			"name": "Unauthorized",
			"type": "error"
		},
		{
			"inputs": [],
			"name": "EPNS_COMM_ADDRESS",
			"outputs": [
				{
					"internalType": "address",
					"name": "",
					"type": "address"
				}
			],
			"stateMutability": "view",
			"type": "function"
		},
		{
			"inputs": [
				{
					"internalType": "address",
					"name": "",
					"type": "address"
				}
			],
			"name": "accountList",
			"outputs": [
				{
					"internalType": "bool",
					"name": "",
					"type": "bool"
				}
			],
			"stateMutability": "view",
			"type": "function"
		},
		{
			"inputs": [
				{
					"internalType": "address",
					"name": "_account",
					"type": "address"
				}
			],
			"name": "allowAccount",
			"outputs": [],
			"stateMutability": "nonpayable",
			"type": "function"
		},
		{
			"inputs": [
				{
					"internalType": "address",
					"name": "_newOwner",
					"type": "address"
				}
			],
			"name": "changeOwner",
			"outputs": [],
			"stateMutability": "nonpayable",
			"type": "function"
		},
		{
			"inputs": [
				{
					"internalType": "bytes",
					"name": "unused",
					"type": "bytes"
				}
			],
			"name": "checkUpkeep",
			"outputs": [
				{
					"internalType": "bool",
					"name": "upkeepNeeded",
					"type": "bool"
				},
				{
					"internalType": "bytes",
					"name": "",
					"type": "bytes"
				}
			],
			"stateMutability": "view",
			"type": "function"
		},
		{
			"inputs": [
				{
					"internalType": "contract ISuperToken",
					"name": "token",
					"type": "address"
				},
				{
					"internalType": "address",
					"name": "receiver",
					"type": "address"
				},
				{
					"internalType": "int96",
					"name": "flowRate",
					"type": "int96"
				}
			],
			"name": "createFlowFromContract",
			"outputs": [],
			"stateMutability": "nonpayable",
			"type": "function"
		},
		{
			"inputs": [
				{
					"internalType": "contract ISuperToken",
					"name": "token",
					"type": "address"
				},
				{
					"internalType": "int96",
					"name": "flowRate",
					"type": "int96"
				}
			],
			"name": "createFlowIntoContract",
			"outputs": [],
			"stateMutability": "nonpayable",
			"type": "function"
		},
		{
			"inputs": [],
			"name": "currFlowRate",
			"outputs": [
				{
					"internalType": "int96",
					"name": "",
					"type": "int96"
				}
			],
			"stateMutability": "view",
			"type": "function"
		},
		{
			"inputs": [
				{
					"internalType": "contract ISuperToken",
					"name": "token",
					"type": "address"
				},
				{
					"internalType": "address",
					"name": "receiver",
					"type": "address"
				}
			],
			"name": "deleteFlowFromContract",
			"outputs": [],
			"stateMutability": "nonpayable",
			"type": "function"
		},
		{
			"inputs": [
				{
					"internalType": "contract ISuperToken",
					"name": "token",
					"type": "address"
				}
			],
			"name": "deleteFlowIntoContract",
			"outputs": [],
			"stateMutability": "nonpayable",
			"type": "function"
		},
		{
			"inputs": [],
			"name": "owner",
			"outputs": [
				{
					"internalType": "address",
					"name": "",
					"type": "address"
				}
			],
			"stateMutability": "view",
			"type": "function"
		},
		{
			"inputs": [
				{
					"internalType": "bytes",
					"name": "unused",
					"type": "bytes"
				}
			],
			"name": "performUpkeep",
			"outputs": [],
			"stateMutability": "nonpayable",
			"type": "function"
		},
		{
			"inputs": [
				{
					"internalType": "address",
					"name": "_account",
					"type": "address"
				}
			],
			"name": "removeAccount",
			"outputs": [],
			"stateMutability": "nonpayable",
			"type": "function"
		},
		{
			"inputs": [
				{
					"internalType": "contract ISuperToken",
					"name": "token",
					"type": "address"
				},
				{
					"internalType": "uint256",
					"name": "amount",
					"type": "uint256"
				}
			],
			"name": "sendLumpSumToContract",
			"outputs": [],
			"stateMutability": "nonpayable",
			"type": "function"
		},
		{
			"inputs": [
				{
					"internalType": "contract ISuperToken",
					"name": "token",
					"type": "address"
				},
				{
					"internalType": "address",
					"name": "receiver",
					"type": "address"
				},
				{
					"internalType": "int96",
					"name": "flowRate",
					"type": "int96"
				}
			],
			"name": "updateFlowFromContract",
			"outputs": [],
			"stateMutability": "nonpayable",
			"type": "function"
		},
		{
			"inputs": [
				{
					"internalType": "contract ISuperToken",
					"name": "token",
					"type": "address"
				},
				{
					"internalType": "int96",
					"name": "flowRate",
					"type": "int96"
				}
			],
			"name": "updateFlowIntoContract",
			"outputs": [],
			"stateMutability": "nonpayable",
			"type": "function"
		},
		{
			"inputs": [
				{
					"internalType": "contract ISuperToken",
					"name": "token",
					"type": "address"
				},
				{
					"internalType": "address",
					"name": "receiver",
					"type": "address"
				}
			],
			"name": "updateTimebased",
			"outputs": [],
			"stateMutability": "nonpayable",
			"type": "function"
		},
		{
			"inputs": [
				{
					"internalType": "contract ISuperToken",
					"name": "token",
					"type": "address"
				},
				{
					"internalType": "uint256",
					"name": "amount",
					"type": "uint256"
				}
			],
			"name": "withdrawFunds",
			"outputs": [],
			"stateMutability": "nonpayable",
			"type": "function"
		}
	],
	"bytecode": "0x608060405273b3971bcef2d791bc4027bbfedfb47319a4aaaaaa6000806101000a81548173ffffffffffffffffffffffffffffffffffffffff021916908373ffffffffffffffffffffffffffffffffffffffff16021790555034801561006457600080fd5b5033600160006101000a81548173ffffffffffffffffffffffffffffffffffffffff021916908373ffffffffffffffffffffffffffffffffffffffff1602179055506000600360006101000a8154816bffffffffffffffffffffffff0219169083600b0b6bffffffffffffffffffffffff160217905550612eb5806100ea6000396000f3fe608060405234801561001057600080fd5b50600436106101165760003560e01c806388f418b6116100a2578063b9f7b12b11610071578063b9f7b12b146102a2578063c1075329146102be578063c2f7c654146102da578063c4740a95146102f6578063d3a07fcd1461031257610116565b806388f418b6146102305780638da5cb5b1461024c578063a5510b321461026a578063a6f9dae11461028657610116565b80633123aabf116100e95780633123aabf1461018b5780634585e33b146101a957806348a3b4a4146101c55780636715e19f146101e35780636e04ff0d146101ff57610116565b8063097e69ef1461011b5780631acc948c1461013757806326ff92e4146101535780632fca92491461016f575b600080fd5b6101356004803603810190610130919061208d565b610342565b005b610151600480360381019061014c91906120e0565b610546565b005b61016d60048036038101906101689190612143565b610628565b005b61018960048036038101906101849190612183565b61078c565b005b61019361089d565b6040516101a091906121d2565b60405180910390f35b6101c360048036038101906101be9190612252565b6108b0565b005b6101cd6108b4565b6040516101da91906122ae565b60405180910390f35b6101fd60048036038101906101f891906122c9565b6108d8565b005b61021960048036038101906102149190612252565b6109e6565b6040516102279291906123aa565b60405180910390f35b61024a600480360381019061024591906123da565b6109f1565b005b610254610c2a565b60405161026191906122ae565b60405180910390f35b610284600480360381019061027f9190612183565b610c50565b005b6102a0600480360381019061029b91906120e0565b610d61565b005b6102bc60048036038101906102b7919061208d565b610e2c565b005b6102d860048036038101906102d39190612143565b611030565b005b6102f460048036038101906102ef91906123da565b611192565b005b610310600480360381019061030b91906120e0565b611396565b005b61032c600480360381019061032791906120e0565b611478565b604051610339919061241a565b60405180910390f35b600260003373ffffffffffffffffffffffffffffffffffffffff1673ffffffffffffffffffffffffffffffffffffffff16815260200190815260200160002060009054906101000a900460ff161580156103ea5750600160009054906101000a900473ffffffffffffffffffffffffffffffffffffffff1673ffffffffffffffffffffffffffffffffffffffff163373ffffffffffffffffffffffffffffffffffffffff1614155b15610421576040517f82b4290000000000000000000000000000000000000000000000000000000000815260040160405180910390fd5b61044c82828573ffffffffffffffffffffffffffffffffffffffff166114989092919063ffffffff16565b5080600360006101000a8154816bffffffffffffffffffffffff0219169083600b0b6bffffffffffffffffffffffff16021790555060008054906101000a900473ffffffffffffffffffffffffffffffffffffffff1673ffffffffffffffffffffffffffffffffffffffff1663ba3d69d77320136f73c536db9d061b078146d7694cd4bd0aea306040516020016104e2906125bc565b6040516020818303038152906040526040518463ffffffff1660e01b815260040161050f93929190612613565b600060405180830381600087803b15801561052957600080fd5b505af115801561053d573d6000803e3d6000fd5b50505050505050565b600160009054906101000a900473ffffffffffffffffffffffffffffffffffffffff1673ffffffffffffffffffffffffffffffffffffffff163373ffffffffffffffffffffffffffffffffffffffff16146105cd576040517f82b4290000000000000000000000000000000000000000000000000000000000815260040160405180910390fd5b6001600260008373ffffffffffffffffffffffffffffffffffffffff1673ffffffffffffffffffffffffffffffffffffffff16815260200190815260200160002060006101000a81548160ff02191690831515021790555050565b600260003373ffffffffffffffffffffffffffffffffffffffff1673ffffffffffffffffffffffffffffffffffffffff16815260200190815260200160002060009054906101000a900460ff161580156106d05750600160009054906101000a900473ffffffffffffffffffffffffffffffffffffffff1673ffffffffffffffffffffffffffffffffffffffff163373ffffffffffffffffffffffffffffffffffffffff1614155b15610707576040517f82b4290000000000000000000000000000000000000000000000000000000000815260040160405180910390fd5b8173ffffffffffffffffffffffffffffffffffffffff166323b872dd3330846040518463ffffffff1660e01b815260040161074493929190612660565b6020604051808303816000875af1158015610763573d6000803e3d6000fd5b505050506040513d601f19601f8201168201806040525081019061078791906126c3565b505050565b600260003373ffffffffffffffffffffffffffffffffffffffff1673ffffffffffffffffffffffffffffffffffffffff16815260200190815260200160002060009054906101000a900460ff161580156108345750600160009054906101000a900473ffffffffffffffffffffffffffffffffffffffff1673ffffffffffffffffffffffffffffffffffffffff163373ffffffffffffffffffffffffffffffffffffffff1614155b1561086b576040517f82b4290000000000000000000000000000000000000000000000000000000000815260040160405180910390fd5b6108983330838573ffffffffffffffffffffffffffffffffffffffff1661164b909392919063ffffffff16565b505050565b600360009054906101000a9004600b0b81565b5050565b60008054906101000a900473ffffffffffffffffffffffffffffffffffffffff1681565b600260003373ffffffffffffffffffffffffffffffffffffffff1673ffffffffffffffffffffffffffffffffffffffff16815260200190815260200160002060009054906101000a900460ff161580156109805750600160009054906101000a900473ffffffffffffffffffffffffffffffffffffffff1673ffffffffffffffffffffffffffffffffffffffff163373ffffffffffffffffffffffffffffffffffffffff1614155b156109b7576040517f82b4290000000000000000000000000000000000000000000000000000000000815260040160405180910390fd5b6109e233308373ffffffffffffffffffffffffffffffffffffffff166118019092919063ffffffff16565b5050565b600060609250929050565b600260003373ffffffffffffffffffffffffffffffffffffffff1673ffffffffffffffffffffffffffffffffffffffff16815260200190815260200160002060009054906101000a900460ff16158015610a995750600160009054906101000a900473ffffffffffffffffffffffffffffffffffffffff1673ffffffffffffffffffffffffffffffffffffffff163373ffffffffffffffffffffffffffffffffffffffff1614155b15610ad0576040517f82b4290000000000000000000000000000000000000000000000000000000000815260040160405180910390fd5b610b16816002600360009054906101000a9004600b0b610af0919061271f565b8473ffffffffffffffffffffffffffffffffffffffff166114989092919063ffffffff16565b506002600360009054906101000a9004600b0b610b33919061271f565b600360006101000a8154816bffffffffffffffffffffffff0219169083600b0b6bffffffffffffffffffffffff16021790555060008054906101000a900473ffffffffffffffffffffffffffffffffffffffff1673ffffffffffffffffffffffffffffffffffffffff1663ba3d69d77320136f73c536db9d061b078146d7694cd4bd0aea30604051602001610bc7906125bc565b6040516020818303038152906040526040518463ffffffff1660e01b8152600401610bf493929190612613565b600060405180830381600087803b158015610c0e57600080fd5b505af1158015610c22573d6000803e3d6000fd5b505050505050565b600160009054906101000a900473ffffffffffffffffffffffffffffffffffffffff1681565b600260003373ffffffffffffffffffffffffffffffffffffffff1673ffffffffffffffffffffffffffffffffffffffff16815260200190815260200160002060009054906101000a900460ff16158015610cf85750600160009054906101000a900473ffffffffffffffffffffffffffffffffffffffff1673ffffffffffffffffffffffffffffffffffffffff163373ffffffffffffffffffffffffffffffffffffffff1614155b15610d2f576040517f82b4290000000000000000000000000000000000000000000000000000000000815260040160405180910390fd5b610d5c3330838573ffffffffffffffffffffffffffffffffffffffff166119b4909392919063ffffffff16565b505050565b600160009054906101000a900473ffffffffffffffffffffffffffffffffffffffff1673ffffffffffffffffffffffffffffffffffffffff163373ffffffffffffffffffffffffffffffffffffffff1614610de8576040517f82b4290000000000000000000000000000000000000000000000000000000000815260040160405180910390fd5b80600160006101000a81548173ffffffffffffffffffffffffffffffffffffffff021916908373ffffffffffffffffffffffffffffffffffffffff16021790555050565b600260003373ffffffffffffffffffffffffffffffffffffffff1673ffffffffffffffffffffffffffffffffffffffff16815260200190815260200160002060009054906101000a900460ff16158015610ed45750600160009054906101000a900473ffffffffffffffffffffffffffffffffffffffff1673ffffffffffffffffffffffffffffffffffffffff163373ffffffffffffffffffffffffffffffffffffffff1614155b15610f0b576040517f82b4290000000000000000000000000000000000000000000000000000000000815260040160405180910390fd5b610f3682828573ffffffffffffffffffffffffffffffffffffffff16611b6a9092919063ffffffff16565b5080600360006101000a8154816bffffffffffffffffffffffff0219169083600b0b6bffffffffffffffffffffffff16021790555060008054906101000a900473ffffffffffffffffffffffffffffffffffffffff1673ffffffffffffffffffffffffffffffffffffffff1663ba3d69d77320136f73c536db9d061b078146d7694cd4bd0aea30604051602001610fcc906128a6565b6040516020818303038152906040526040518463ffffffff1660e01b8152600401610ff993929190612613565b600060405180830381600087803b15801561101357600080fd5b505af1158015611027573d6000803e3d6000fd5b50505050505050565b600260003373ffffffffffffffffffffffffffffffffffffffff1673ffffffffffffffffffffffffffffffffffffffff16815260200190815260200160002060009054906101000a900460ff161580156110d85750600160009054906101000a900473ffffffffffffffffffffffffffffffffffffffff1673ffffffffffffffffffffffffffffffffffffffff163373ffffffffffffffffffffffffffffffffffffffff1614155b1561110f576040517f82b4290000000000000000000000000000000000000000000000000000000000815260040160405180910390fd5b8173ffffffffffffffffffffffffffffffffffffffff1663a9059cbb33836040518363ffffffff1660e01b815260040161114a9291906128fd565b6020604051808303816000875af1158015611169573d6000803e3d6000fd5b505050506040513d601f19601f8201168201806040525081019061118d91906126c3565b505050565b600260003373ffffffffffffffffffffffffffffffffffffffff1673ffffffffffffffffffffffffffffffffffffffff16815260200190815260200160002060009054906101000a900460ff1615801561123a5750600160009054906101000a900473ffffffffffffffffffffffffffffffffffffffff1673ffffffffffffffffffffffffffffffffffffffff163373ffffffffffffffffffffffffffffffffffffffff1614155b15611271576040517f82b4290000000000000000000000000000000000000000000000000000000000815260040160405180910390fd5b61129c30828473ffffffffffffffffffffffffffffffffffffffff166118019092919063ffffffff16565b506000600360006101000a8154816bffffffffffffffffffffffff0219169083600b0b6bffffffffffffffffffffffff16021790555060008054906101000a900473ffffffffffffffffffffffffffffffffffffffff1673ffffffffffffffffffffffffffffffffffffffff1663ba3d69d77320136f73c536db9d061b078146d7694cd4bd0aea30604051602001611333906129be565b6040516020818303038152906040526040518463ffffffff1660e01b815260040161136093929190612613565b600060405180830381600087803b15801561137a57600080fd5b505af115801561138e573d6000803e3d6000fd5b505050505050565b600160009054906101000a900473ffffffffffffffffffffffffffffffffffffffff1673ffffffffffffffffffffffffffffffffffffffff163373ffffffffffffffffffffffffffffffffffffffff161461141d576040517f82b4290000000000000000000000000000000000000000000000000000000000815260040160405180910390fd5b6000600260008373ffffffffffffffffffffffffffffffffffffffff1673ffffffffffffffffffffffffffffffffffffffff16815260200190815260200160002060006101000a81548160ff02191690831515021790555050565b60026020528060005260406000206000915054906101000a900460ff1681565b60008060006114a686611d1d565b915091508173ffffffffffffffffffffffffffffffffffffffff166339255d5b828373ffffffffffffffffffffffffffffffffffffffff166350209a628a8a8a600067ffffffffffffffff81111561150157611500612a15565b5b6040519080825280601f01601f1916602001820160405280156115335781602001600182028036833780820191505090505b506040516024016115479493929190612aa3565b604051602081830303815290604052915060e01b6020820180517bffffffffffffffffffffffffffffffffffffffffffffffffffffffff8381831617835250505050600067ffffffffffffffff8111156115a4576115a3612a15565b5b6040519080825280601f01601f1916602001820160405280156115d65781602001600182028036833780820191505090505b506040518463ffffffff1660e01b81526004016115f593929190612b10565b6000604051808303816000875af1158015611614573d6000803e3d6000fd5b505050506040513d6000823e3d601f19601f8201168201806040525081019061163d9190612c47565b506001925050509392505050565b600080600061165987611d1d565b915091508173ffffffffffffffffffffffffffffffffffffffff166339255d5b828373ffffffffffffffffffffffffffffffffffffffff1663354b95908b8b8b8b600067ffffffffffffffff8111156116b5576116b4612a15565b5b6040519080825280601f01601f1916602001820160405280156116e75781602001600182028036833780820191505090505b506040516024016116fc959493929190612c90565b604051602081830303815290604052915060e01b6020820180517bffffffffffffffffffffffffffffffffffffffffffffffffffffffff8381831617835250505050600067ffffffffffffffff81111561175957611758612a15565b5b6040519080825280601f01601f19166020018201604052801561178b5781602001600182028036833780820191505090505b506040518463ffffffff1660e01b81526004016117aa93929190612b10565b6000604051808303816000875af11580156117c9573d6000803e3d6000fd5b505050506040513d6000823e3d601f19601f820116820180604052508101906117f29190612c47565b50600192505050949350505050565b600080600061180f86611d1d565b915091508173ffffffffffffffffffffffffffffffffffffffff166339255d5b828373ffffffffffffffffffffffffffffffffffffffff1663b4b333c68a8a8a600067ffffffffffffffff81111561186a57611869612a15565b5b6040519080825280601f01601f19166020018201604052801561189c5781602001600182028036833780820191505090505b506040516024016118b09493929190612cea565b604051602081830303815290604052915060e01b6020820180517bffffffffffffffffffffffffffffffffffffffffffffffffffffffff8381831617835250505050600067ffffffffffffffff81111561190d5761190c612a15565b5b6040519080825280601f01601f19166020018201604052801561193f5781602001600182028036833780820191505090505b506040518463ffffffff1660e01b815260040161195e93929190612b10565b6000604051808303816000875af115801561197d573d6000803e3d6000fd5b505050506040513d6000823e3d601f19601f820116820180604052508101906119a69190612c47565b506001925050509392505050565b60008060006119c287611d1d565b915091508173ffffffffffffffffffffffffffffffffffffffff166339255d5b828373ffffffffffffffffffffffffffffffffffffffff166394229ecb8b8b8b8b600067ffffffffffffffff811115611a1e57611a1d612a15565b5b6040519080825280601f01601f191660200182016040528015611a505781602001600182028036833780820191505090505b50604051602401611a65959493929190612c90565b604051602081830303815290604052915060e01b6020820180517bffffffffffffffffffffffffffffffffffffffffffffffffffffffff8381831617835250505050600067ffffffffffffffff811115611ac257611ac1612a15565b5b6040519080825280601f01601f191660200182016040528015611af45781602001600182028036833780820191505090505b506040518463ffffffff1660e01b8152600401611b1393929190612b10565b6000604051808303816000875af1158015611b32573d6000803e3d6000fd5b505050506040513d6000823e3d601f19601f82011682018060405250810190611b5b9190612c47565b50600192505050949350505050565b6000806000611b7886611d1d565b915091508173ffffffffffffffffffffffffffffffffffffffff166339255d5b828373ffffffffffffffffffffffffffffffffffffffff166362fc305e8a8a8a600067ffffffffffffffff811115611bd357611bd2612a15565b5b6040519080825280601f01601f191660200182016040528015611c055781602001600182028036833780820191505090505b50604051602401611c199493929190612aa3565b604051602081830303815290604052915060e01b6020820180517bffffffffffffffffffffffffffffffffffffffffffffffffffffffff8381831617835250505050600067ffffffffffffffff811115611c7657611c75612a15565b5b6040519080825280601f01601f191660200182016040528015611ca85781602001600182028036833780820191505090505b506040518463ffffffff1660e01b8152600401611cc793929190612b10565b6000604051808303816000875af1158015611ce6573d6000803e3d6000fd5b505050506040513d6000823e3d601f19601f82011682018060405250810190611d0f9190612c47565b506001925050509392505050565b6000807f65599bf746e17a00ea62e3610586992d88101b78eec3cf380706621fb97ea8375491507fb969d79d88acd02d04ed7ee7d43b949e7daf093d363abcfbbc43dfdfd1ce969a549050600073ffffffffffffffffffffffffffffffffffffffff168173ffffffffffffffffffffffffffffffffffffffff1603611f2557600073ffffffffffffffffffffffffffffffffffffffff168273ffffffffffffffffffffffffffffffffffffffff1603611e42578273ffffffffffffffffffffffffffffffffffffffff166320bc44256040518163ffffffff1660e01b8152600401602060405180830381865afa158015611e1b573d6000803e3d6000fd5b505050506040513d601f19601f82011682018060405250810190611e3f9190612d4b565b91505b8173ffffffffffffffffffffffffffffffffffffffff1663b6d200de7fa9214cc96615e0085d3bb077758db69497dc2dce3b2b1e97bc93c3d18d83efd36040518263ffffffff1660e01b8152600401611e9b9190612dca565b602060405180830381865afa158015611eb8573d6000803e3d6000fd5b505050506040513d601f19601f82011682018060405250810190611edc9190612e23565b9050817f65599bf746e17a00ea62e3610586992d88101b78eec3cf380706621fb97ea83755807fb969d79d88acd02d04ed7ee7d43b949e7daf093d363abcfbbc43dfdfd1ce969a555b600073ffffffffffffffffffffffffffffffffffffffff168273ffffffffffffffffffffffffffffffffffffffff1603611f6257611f61612e50565b5b600073ffffffffffffffffffffffffffffffffffffffff168173ffffffffffffffffffffffffffffffffffffffff1603611f9f57611f9e612e50565b5b915091565b6000604051905090565b600080fd5b600080fd5b600073ffffffffffffffffffffffffffffffffffffffff82169050919050565b6000611fe382611fb8565b9050919050565b6000611ff582611fd8565b9050919050565b61200581611fea565b811461201057600080fd5b50565b60008135905061202281611ffc565b92915050565b61203181611fd8565b811461203c57600080fd5b50565b60008135905061204e81612028565b92915050565b600081600b0b9050919050565b61206a81612054565b811461207557600080fd5b50565b60008135905061208781612061565b92915050565b6000806000606084860312156120a6576120a5611fae565b5b60006120b486828701612013565b93505060206120c58682870161203f565b92505060406120d686828701612078565b9150509250925092565b6000602082840312156120f6576120f5611fae565b5b60006121048482850161203f565b91505092915050565b6000819050919050565b6121208161210d565b811461212b57600080fd5b50565b60008135905061213d81612117565b92915050565b6000806040838503121561215a57612159611fae565b5b600061216885828601612013565b92505060206121798582860161212e565b9150509250929050565b6000806040838503121561219a57612199611fae565b5b60006121a885828601612013565b92505060206121b985828601612078565b9150509250929050565b6121cc81612054565b82525050565b60006020820190506121e760008301846121c3565b92915050565b600080fd5b600080fd5b600080fd5b60008083601f840112612212576122116121ed565b5b8235905067ffffffffffffffff81111561222f5761222e6121f2565b5b60208301915083600182028301111561224b5761224a6121f7565b5b9250929050565b6000806020838503121561226957612268611fae565b5b600083013567ffffffffffffffff81111561228757612286611fb3565b5b612293858286016121fc565b92509250509250929050565b6122a881611fd8565b82525050565b60006020820190506122c3600083018461229f565b92915050565b6000602082840312156122df576122de611fae565b5b60006122ed84828501612013565b91505092915050565b60008115159050919050565b61230b816122f6565b82525050565b600081519050919050565b600082825260208201905092915050565b60005b8381101561234b578082015181840152602081019050612330565b8381111561235a576000848401525b50505050565b6000601f19601f8301169050919050565b600061237c82612311565b612386818561231c565b935061239681856020860161232d565b61239f81612360565b840191505092915050565b60006040820190506123bf6000830185612302565b81810360208301526123d18184612371565b90509392505050565b600080604083850312156123f1576123f0611fae565b5b60006123ff85828601612013565b92505060206124108582860161203f565b9150509250929050565b600060208201905061242f6000830184612302565b92915050565b600081905092915050565b7f3000000000000000000000000000000000000000000000000000000000000000600082015250565b6000612476600183612435565b915061248182612440565b600182019050919050565b7f2b00000000000000000000000000000000000000000000000000000000000000600082015250565b60006124c2600183612435565b91506124cd8261248c565b600182019050919050565b7f3100000000000000000000000000000000000000000000000000000000000000600082015250565b600061250e600183612435565b9150612519826124d8565b600182019050919050565b7f5265776172642053747265616d20557064617465640000000000000000000000600082015250565b600061255a601583612435565b915061256582612524565b601582019050919050565b7f5265776172642073747265616d20686173206265656e20757064617465642e00600082015250565b60006125a6601f83612435565b91506125b182612570565b601f82019050919050565b60006125c782612469565b91506125d2826124b5565b91506125dd82612501565b91506125e8826124b5565b91506125f38261254d565b91506125fe826124b5565b915061260982612599565b9150819050919050565b6000606082019050612628600083018661229f565b612635602083018561229f565b81810360408301526126478184612371565b9050949350505050565b61265a8161210d565b82525050565b6000606082019050612675600083018661229f565b612682602083018561229f565b61268f6040830184612651565b949350505050565b6126a0816122f6565b81146126ab57600080fd5b50565b6000815190506126bd81612697565b92915050565b6000602082840312156126d9576126d8611fae565b5b60006126e7848285016126ae565b91505092915050565b7f4e487b7100000000000000000000000000000000000000000000000000000000600052601160045260246000fd5b600061272a82612054565b915061273583612054565b9250826b7fffffffffffffffffffffff04821160008413600084131616156127605761275f6126f0565b5b817fffffffffffffffffffffffffffffffffffffffff800000000000000000000000058312600084126000841316161561279d5761279c6126f0565b5b827fffffffffffffffffffffffffffffffffffffffff80000000000000000000000005821260008413600084121616156127da576127d96126f0565b5b826b7fffffffffffffffffffffff0582126000841260008412161615612803576128026126f0565b5b828202905092915050565b7f5265776172642053747265616d20437265617465640000000000000000000000600082015250565b6000612844601583612435565b915061284f8261280e565b601582019050919050565b7f5265776172642073747265616d20686173206265656e20637265617465642e00600082015250565b6000612890601f83612435565b915061289b8261285a565b601f82019050919050565b60006128b182612469565b91506128bc826124b5565b91506128c782612501565b91506128d2826124b5565b91506128dd82612837565b91506128e8826124b5565b91506128f382612883565b9150819050919050565b6000604082019050612912600083018561229f565b61291f6020830184612651565b9392505050565b7f5265776172642053747265616d2044656c657465640000000000000000000000600082015250565b600061295c601583612435565b915061296782612926565b601582019050919050565b7f5265776172642073747265616d20686173206265656e2064656c657465642e00600082015250565b60006129a8601f83612435565b91506129b382612972565b601f82019050919050565b60006129c982612469565b91506129d4826124b5565b91506129df82612501565b91506129ea826124b5565b91506129f58261294f565b9150612a00826124b5565b9150612a0b8261299b565b9150819050919050565b7f4e487b7100000000000000000000000000000000000000000000000000000000600052604160045260246000fd5b6000819050919050565b6000612a69612a64612a5f84611fb8565b612a44565b611fb8565b9050919050565b6000612a7b82612a4e565b9050919050565b6000612a8d82612a70565b9050919050565b612a9d81612a82565b82525050565b6000608082019050612ab86000830187612a94565b612ac5602083018661229f565b612ad260408301856121c3565b8181036060830152612ae48184612371565b905095945050505050565b6000612afa82612a70565b9050919050565b612b0a81612aef565b82525050565b6000606082019050612b256000830186612b01565b8181036020830152612b378185612371565b90508181036040830152612b4b8184612371565b9050949350505050565b600080fd5b612b6382612360565b810181811067ffffffffffffffff82111715612b8257612b81612a15565b5b80604052505050565b6000612b95611fa4565b9050612ba18282612b5a565b919050565b600067ffffffffffffffff821115612bc157612bc0612a15565b5b612bca82612360565b9050602081019050919050565b6000612bea612be584612ba6565b612b8b565b905082815260208101848484011115612c0657612c05612b55565b5b612c1184828561232d565b509392505050565b600082601f830112612c2e57612c2d6121ed565b5b8151612c3e848260208601612bd7565b91505092915050565b600060208284031215612c5d57612c5c611fae565b5b600082015167ffffffffffffffff811115612c7b57612c7a611fb3565b5b612c8784828501612c19565b91505092915050565b600060a082019050612ca56000830188612a94565b612cb2602083018761229f565b612cbf604083018661229f565b612ccc60608301856121c3565b8181036080830152612cde8184612371565b90509695505050505050565b6000608082019050612cff6000830187612a94565b612d0c602083018661229f565b612d19604083018561229f565b8181036060830152612d2b8184612371565b905095945050505050565b600081519050612d4581612028565b92915050565b600060208284031215612d6157612d60611fae565b5b6000612d6f84828501612d36565b91505092915050565b6000819050919050565b6000819050919050565b60008160001b9050919050565b6000612db4612daf612daa84612d78565b612d8c565b612d82565b9050919050565b612dc481612d99565b82525050565b6000602082019050612ddf6000830184612dbb565b92915050565b6000612df082611fd8565b9050919050565b612e0081612de5565b8114612e0b57600080fd5b50565b600081519050612e1d81612df7565b92915050565b600060208284031215612e3957612e38611fae565b5b6000612e4784828501612e0e565b91505092915050565b7f4e487b7100000000000000000000000000000000000000000000000000000000600052600160045260246000fdfea2646970667358221220223571038d9e637f5fc27deef1ec114a21a3392ae69372918d8f2e36804a573364736f6c634300080e0033",
	"linkReferences": {},
	"deployedLinkReferences": {}
}