{
	"_format": "hh-sol-artifact-1",
	"contractName": "Reflow",
	"sourceName": "contracts/Reflow.sol",
	"abi": [
		{
			"inputs": [],
			"stateMutability": "nonpayable",
			"type": "constructor"
		},
		{
			"inputs": [],
			"name": "Unauthorized",
			"type": "error"
		},
		{
			"inputs": [],
			"name": "EPNS_COMM_ADDRESS",
			"outputs": [
				{
					"internalType": "address",
					"name": "",
					"type": "address"
				}
			],
			"stateMutability": "view",
			"type": "function"
		},
		{
			"inputs": [
				{
					"internalType": "address",
					"name": "",
					"type": "address"
				}
			],
			"name": "accountList",
			"outputs": [
				{
					"internalType": "bool",
					"name": "",
					"type": "bool"
				}
			],
			"stateMutability": "view",
			"type": "function"
		},
		{
			"inputs": [
				{
					"internalType": "address",
					"name": "_account",
					"type": "address"
				}
			],
			"name": "allowAccount",
			"outputs": [],
			"stateMutability": "nonpayable",
			"type": "function"
		},
		{
			"inputs": [
				{
					"internalType": "address",
					"name": "_newOwner",
					"type": "address"
				}
			],
			"name": "changeOwner",
			"outputs": [],
			"stateMutability": "nonpayable",
			"type": "function"
		},
		{
			"inputs": [
				{
					"internalType": "bytes",
					"name": "unused",
					"type": "bytes"
				}
			],
			"name": "checkUpkeep",
			"outputs": [
				{
					"internalType": "bool",
					"name": "upkeepNeeded",
					"type": "bool"
				},
				{
					"internalType": "bytes",
					"name": "",
					"type": "bytes"
				}
			],
			"stateMutability": "view",
			"type": "function"
		},
		{
			"inputs": [
				{
					"internalType": "contract ISuperToken",
					"name": "token",
					"type": "address"
				},
				{
					"internalType": "address",
					"name": "receiver",
					"type": "address"
				},
				{
					"internalType": "int96",
					"name": "flowRate",
					"type": "int96"
				}
			],
			"name": "createFlowFromContract",
			"outputs": [],
			"stateMutability": "nonpayable",
			"type": "function"
		},
		{
			"inputs": [
				{
					"internalType": "contract ISuperToken",
					"name": "token",
					"type": "address"
				},
				{
					"internalType": "int96",
					"name": "flowRate",
					"type": "int96"
				}
			],
			"name": "createFlowIntoContract",
			"outputs": [],
			"stateMutability": "nonpayable",
			"type": "function"
		},
		{
			"inputs": [],
			"name": "currFlowRate",
			"outputs": [
				{
					"internalType": "int96",
					"name": "",
					"type": "int96"
				}
			],
			"stateMutability": "view",
			"type": "function"
		},
		{
			"inputs": [
				{
					"internalType": "contract ISuperToken",
					"name": "token",
					"type": "address"
				},
				{
					"internalType": "address",
					"name": "receiver",
					"type": "address"
				}
			],
			"name": "deleteFlowFromContract",
			"outputs": [],
			"stateMutability": "nonpayable",
			"type": "function"
		},
		{
			"inputs": [
				{
					"internalType": "contract ISuperToken",
					"name": "token",
					"type": "address"
				}
			],
			"name": "deleteFlowIntoContract",
			"outputs": [],
			"stateMutability": "nonpayable",
			"type": "function"
		},
		{
			"inputs": [],
			"name": "owner",
			"outputs": [
				{
					"internalType": "address",
					"name": "",
					"type": "address"
				}
			],
			"stateMutability": "view",
			"type": "function"
		},
		{
			"inputs": [
				{
					"internalType": "bytes",
					"name": "unused",
					"type": "bytes"
				}
			],
			"name": "performUpkeep",
			"outputs": [],
			"stateMutability": "nonpayable",
			"type": "function"
		},
		{
			"inputs": [
				{
					"internalType": "address",
					"name": "_account",
					"type": "address"
				}
			],
			"name": "removeAccount",
			"outputs": [],
			"stateMutability": "nonpayable",
			"type": "function"
		},
		{
			"inputs": [
				{
					"internalType": "contract ISuperToken",
					"name": "token",
					"type": "address"
				},
				{
					"internalType": "uint256",
					"name": "amount",
					"type": "uint256"
				}
			],
			"name": "sendLumpSumToContract",
			"outputs": [],
			"stateMutability": "nonpayable",
			"type": "function"
		},
		{
			"inputs": [
				{
					"internalType": "contract ISuperToken",
					"name": "token",
					"type": "address"
				},
				{
					"internalType": "address",
					"name": "receiver",
					"type": "address"
				},
				{
					"internalType": "int96",
					"name": "flowRate",
					"type": "int96"
				}
			],
			"name": "updateFlowFromContract",
			"outputs": [],
			"stateMutability": "nonpayable",
			"type": "function"
		},
		{
			"inputs": [
				{
					"internalType": "contract ISuperToken",
					"name": "token",
					"type": "address"
				},
				{
					"internalType": "int96",
					"name": "flowRate",
					"type": "int96"
				}
			],
			"name": "updateFlowIntoContract",
			"outputs": [],
			"stateMutability": "nonpayable",
			"type": "function"
		},
		{
			"inputs": [
				{
					"internalType": "contract ISuperToken",
					"name": "token",
					"type": "address"
				},
				{
					"internalType": "address",
					"name": "receiver",
					"type": "address"
				}
			],
			"name": "updateTimebased",
			"outputs": [],
			"stateMutability": "nonpayable",
			"type": "function"
		},
		{
			"inputs": [
				{
					"internalType": "contract ISuperToken",
					"name": "token",
					"type": "address"
				},
				{
					"internalType": "uint256",
					"name": "amount",
					"type": "uint256"
				}
			],
			"name": "withdrawFunds",
			"outputs": [],
			"stateMutability": "nonpayable",
			"type": "function"
		}
	],
	"bytecode": "0x608060405273b3971bcef2d791bc4027bbfedfb47319a4aaaaaa6000806101000a81548173ffffffffffffffffffffffffffffffffffffffff021916908373ffffffffffffffffffffffffffffffffffffffff16021790555034801561006457600080fd5b5033600160006101000a81548173ffffffffffffffffffffffffffffffffffffffff021916908373ffffffffffffffffffffffffffffffffffffffff1602179055506000600360006101000a8154816bffffffffffffffffffffffff0219169083600b0b6bffffffffffffffffffffffff160217905550612f87806100ea6000396000f3fe608060405234801561001057600080fd5b50600436106101165760003560e01c806388f418b6116100a2578063b9f7b12b11610071578063b9f7b12b146102a2578063c1075329146102be578063c2f7c654146102da578063c4740a95146102f6578063d3a07fcd1461031257610116565b806388f418b6146102305780638da5cb5b1461024c578063a5510b321461026a578063a6f9dae11461028657610116565b80633123aabf116100e95780633123aabf1461018b5780634585e33b146101a957806348a3b4a4146101c55780636715e19f146101e35780636e04ff0d146101ff57610116565b8063097e69ef1461011b5780631acc948c1461013757806326ff92e4146101535780632fca92491461016f575b600080fd5b610135600480360381019061013091906120e2565b610342565b005b610151600480360381019061014c9190612135565b610546565b005b61016d60048036038101906101689190612198565b610628565b005b610189600480360381019061018491906121d8565b61078c565b005b61019361089d565b6040516101a09190612227565b60405180910390f35b6101c360048036038101906101be91906122a7565b6108b0565b005b6101cd6108b4565b6040516101da9190612303565b60405180910390f35b6101fd60048036038101906101f8919061231e565b6108d8565b005b610219600480360381019061021491906122a7565b6109e6565b6040516102279291906123ff565b60405180910390f35b61024a6004803603810190610245919061242f565b6109f1565b005b610254610c7f565b6040516102619190612303565b60405180910390f35b610284600480360381019061027f91906121d8565b610ca5565b005b6102a0600480360381019061029b9190612135565b610db6565b005b6102bc60048036038101906102b791906120e2565b610e81565b005b6102d860048036038101906102d39190612198565b611085565b005b6102f460048036038101906102ef919061242f565b6111e7565b005b610310600480360381019061030b9190612135565b6113eb565b005b61032c60048036038101906103279190612135565b6114cd565b604051610339919061246f565b60405180910390f35b600260003373ffffffffffffffffffffffffffffffffffffffff1673ffffffffffffffffffffffffffffffffffffffff16815260200190815260200160002060009054906101000a900460ff161580156103ea5750600160009054906101000a900473ffffffffffffffffffffffffffffffffffffffff1673ffffffffffffffffffffffffffffffffffffffff163373ffffffffffffffffffffffffffffffffffffffff1614155b15610421576040517f82b4290000000000000000000000000000000000000000000000000000000000815260040160405180910390fd5b61044c82828573ffffffffffffffffffffffffffffffffffffffff166114ed9092919063ffffffff16565b5080600360006101000a8154816bffffffffffffffffffffffff0219169083600b0b6bffffffffffffffffffffffff16021790555060008054906101000a900473ffffffffffffffffffffffffffffffffffffffff1673ffffffffffffffffffffffffffffffffffffffff1663ba3d69d77320136f73c536db9d061b078146d7694cd4bd0aea306040516020016104e290612611565b6040516020818303038152906040526040518463ffffffff1660e01b815260040161050f93929190612668565b600060405180830381600087803b15801561052957600080fd5b505af115801561053d573d6000803e3d6000fd5b50505050505050565b600160009054906101000a900473ffffffffffffffffffffffffffffffffffffffff1673ffffffffffffffffffffffffffffffffffffffff163373ffffffffffffffffffffffffffffffffffffffff16146105cd576040517f82b4290000000000000000000000000000000000000000000000000000000000815260040160405180910390fd5b6001600260008373ffffffffffffffffffffffffffffffffffffffff1673ffffffffffffffffffffffffffffffffffffffff16815260200190815260200160002060006101000a81548160ff02191690831515021790555050565b600260003373ffffffffffffffffffffffffffffffffffffffff1673ffffffffffffffffffffffffffffffffffffffff16815260200190815260200160002060009054906101000a900460ff161580156106d05750600160009054906101000a900473ffffffffffffffffffffffffffffffffffffffff1673ffffffffffffffffffffffffffffffffffffffff163373ffffffffffffffffffffffffffffffffffffffff1614155b15610707576040517f82b4290000000000000000000000000000000000000000000000000000000000815260040160405180910390fd5b8173ffffffffffffffffffffffffffffffffffffffff166323b872dd3330846040518463ffffffff1660e01b8152600401610744939291906126b5565b6020604051808303816000875af1158015610763573d6000803e3d6000fd5b505050506040513d601f19601f820116820180604052508101906107879190612718565b505050565b600260003373ffffffffffffffffffffffffffffffffffffffff1673ffffffffffffffffffffffffffffffffffffffff16815260200190815260200160002060009054906101000a900460ff161580156108345750600160009054906101000a900473ffffffffffffffffffffffffffffffffffffffff1673ffffffffffffffffffffffffffffffffffffffff163373ffffffffffffffffffffffffffffffffffffffff1614155b1561086b576040517f82b4290000000000000000000000000000000000000000000000000000000000815260040160405180910390fd5b6108983330838573ffffffffffffffffffffffffffffffffffffffff166116a0909392919063ffffffff16565b505050565b600360009054906101000a9004600b0b81565b5050565b60008054906101000a900473ffffffffffffffffffffffffffffffffffffffff1681565b600260003373ffffffffffffffffffffffffffffffffffffffff1673ffffffffffffffffffffffffffffffffffffffff16815260200190815260200160002060009054906101000a900460ff161580156109805750600160009054906101000a900473ffffffffffffffffffffffffffffffffffffffff1673ffffffffffffffffffffffffffffffffffffffff163373ffffffffffffffffffffffffffffffffffffffff1614155b156109b7576040517f82b4290000000000000000000000000000000000000000000000000000000000815260040160405180910390fd5b6109e233308373ffffffffffffffffffffffffffffffffffffffff166118569092919063ffffffff16565b5050565b600060609250929050565b6000600360009054906101000a9004600b0b600b0b03610a46576040517f08c379a0000000000000000000000000000000000000000000000000000000008152600401610a3d906127a2565b60405180910390fd5b600260003373ffffffffffffffffffffffffffffffffffffffff1673ffffffffffffffffffffffffffffffffffffffff16815260200190815260200160002060009054906101000a900460ff16158015610aee5750600160009054906101000a900473ffffffffffffffffffffffffffffffffffffffff1673ffffffffffffffffffffffffffffffffffffffff163373ffffffffffffffffffffffffffffffffffffffff1614155b15610b25576040517f82b4290000000000000000000000000000000000000000000000000000000000815260040160405180910390fd5b610b6b816002600360009054906101000a9004600b0b610b4591906127f1565b8473ffffffffffffffffffffffffffffffffffffffff166114ed9092919063ffffffff16565b506002600360009054906101000a9004600b0b610b8891906127f1565b600360006101000a8154816bffffffffffffffffffffffff0219169083600b0b6bffffffffffffffffffffffff16021790555060008054906101000a900473ffffffffffffffffffffffffffffffffffffffff1673ffffffffffffffffffffffffffffffffffffffff1663ba3d69d77320136f73c536db9d061b078146d7694cd4bd0aea30604051602001610c1c90612611565b6040516020818303038152906040526040518463ffffffff1660e01b8152600401610c4993929190612668565b600060405180830381600087803b158015610c6357600080fd5b505af1158015610c77573d6000803e3d6000fd5b505050505050565b600160009054906101000a900473ffffffffffffffffffffffffffffffffffffffff1681565b600260003373ffffffffffffffffffffffffffffffffffffffff1673ffffffffffffffffffffffffffffffffffffffff16815260200190815260200160002060009054906101000a900460ff16158015610d4d5750600160009054906101000a900473ffffffffffffffffffffffffffffffffffffffff1673ffffffffffffffffffffffffffffffffffffffff163373ffffffffffffffffffffffffffffffffffffffff1614155b15610d84576040517f82b4290000000000000000000000000000000000000000000000000000000000815260040160405180910390fd5b610db13330838573ffffffffffffffffffffffffffffffffffffffff16611a09909392919063ffffffff16565b505050565b600160009054906101000a900473ffffffffffffffffffffffffffffffffffffffff1673ffffffffffffffffffffffffffffffffffffffff163373ffffffffffffffffffffffffffffffffffffffff1614610e3d576040517f82b4290000000000000000000000000000000000000000000000000000000000815260040160405180910390fd5b80600160006101000a81548173ffffffffffffffffffffffffffffffffffffffff021916908373ffffffffffffffffffffffffffffffffffffffff16021790555050565b600260003373ffffffffffffffffffffffffffffffffffffffff1673ffffffffffffffffffffffffffffffffffffffff16815260200190815260200160002060009054906101000a900460ff16158015610f295750600160009054906101000a900473ffffffffffffffffffffffffffffffffffffffff1673ffffffffffffffffffffffffffffffffffffffff163373ffffffffffffffffffffffffffffffffffffffff1614155b15610f60576040517f82b4290000000000000000000000000000000000000000000000000000000000815260040160405180910390fd5b610f8b82828573ffffffffffffffffffffffffffffffffffffffff16611bbf9092919063ffffffff16565b5080600360006101000a8154816bffffffffffffffffffffffff0219169083600b0b6bffffffffffffffffffffffff16021790555060008054906101000a900473ffffffffffffffffffffffffffffffffffffffff1673ffffffffffffffffffffffffffffffffffffffff1663ba3d69d77320136f73c536db9d061b078146d7694cd4bd0aea3060405160200161102190612978565b6040516020818303038152906040526040518463ffffffff1660e01b815260040161104e93929190612668565b600060405180830381600087803b15801561106857600080fd5b505af115801561107c573d6000803e3d6000fd5b50505050505050565b600260003373ffffffffffffffffffffffffffffffffffffffff1673ffffffffffffffffffffffffffffffffffffffff16815260200190815260200160002060009054906101000a900460ff1615801561112d5750600160009054906101000a900473ffffffffffffffffffffffffffffffffffffffff1673ffffffffffffffffffffffffffffffffffffffff163373ffffffffffffffffffffffffffffffffffffffff1614155b15611164576040517f82b4290000000000000000000000000000000000000000000000000000000000815260040160405180910390fd5b8173ffffffffffffffffffffffffffffffffffffffff1663a9059cbb33836040518363ffffffff1660e01b815260040161119f9291906129cf565b6020604051808303816000875af11580156111be573d6000803e3d6000fd5b505050506040513d601f19601f820116820180604052508101906111e29190612718565b505050565b600260003373ffffffffffffffffffffffffffffffffffffffff1673ffffffffffffffffffffffffffffffffffffffff16815260200190815260200160002060009054906101000a900460ff1615801561128f5750600160009054906101000a900473ffffffffffffffffffffffffffffffffffffffff1673ffffffffffffffffffffffffffffffffffffffff163373ffffffffffffffffffffffffffffffffffffffff1614155b156112c6576040517f82b4290000000000000000000000000000000000000000000000000000000000815260040160405180910390fd5b6112f130828473ffffffffffffffffffffffffffffffffffffffff166118569092919063ffffffff16565b506000600360006101000a8154816bffffffffffffffffffffffff0219169083600b0b6bffffffffffffffffffffffff16021790555060008054906101000a900473ffffffffffffffffffffffffffffffffffffffff1673ffffffffffffffffffffffffffffffffffffffff1663ba3d69d77320136f73c536db9d061b078146d7694cd4bd0aea3060405160200161138890612a90565b6040516020818303038152906040526040518463ffffffff1660e01b81526004016113b593929190612668565b600060405180830381600087803b1580156113cf57600080fd5b505af11580156113e3573d6000803e3d6000fd5b505050505050565b600160009054906101000a900473ffffffffffffffffffffffffffffffffffffffff1673ffffffffffffffffffffffffffffffffffffffff163373ffffffffffffffffffffffffffffffffffffffff1614611472576040517f82b4290000000000000000000000000000000000000000000000000000000000815260040160405180910390fd5b6000600260008373ffffffffffffffffffffffffffffffffffffffff1673ffffffffffffffffffffffffffffffffffffffff16815260200190815260200160002060006101000a81548160ff02191690831515021790555050565b60026020528060005260406000206000915054906101000a900460ff1681565b60008060006114fb86611d72565b915091508173ffffffffffffffffffffffffffffffffffffffff166339255d5b828373ffffffffffffffffffffffffffffffffffffffff166350209a628a8a8a600067ffffffffffffffff81111561155657611555612ae7565b5b6040519080825280601f01601f1916602001820160405280156115885781602001600182028036833780820191505090505b5060405160240161159c9493929190612b75565b604051602081830303815290604052915060e01b6020820180517bffffffffffffffffffffffffffffffffffffffffffffffffffffffff8381831617835250505050600067ffffffffffffffff8111156115f9576115f8612ae7565b5b6040519080825280601f01601f19166020018201604052801561162b5781602001600182028036833780820191505090505b506040518463ffffffff1660e01b815260040161164a93929190612be2565b6000604051808303816000875af1158015611669573d6000803e3d6000fd5b505050506040513d6000823e3d601f19601f820116820180604052508101906116929190612d19565b506001925050509392505050565b60008060006116ae87611d72565b915091508173ffffffffffffffffffffffffffffffffffffffff166339255d5b828373ffffffffffffffffffffffffffffffffffffffff1663354b95908b8b8b8b600067ffffffffffffffff81111561170a57611709612ae7565b5b6040519080825280601f01601f19166020018201604052801561173c5781602001600182028036833780820191505090505b50604051602401611751959493929190612d62565b604051602081830303815290604052915060e01b6020820180517bffffffffffffffffffffffffffffffffffffffffffffffffffffffff8381831617835250505050600067ffffffffffffffff8111156117ae576117ad612ae7565b5b6040519080825280601f01601f1916602001820160405280156117e05781602001600182028036833780820191505090505b506040518463ffffffff1660e01b81526004016117ff93929190612be2565b6000604051808303816000875af115801561181e573d6000803e3d6000fd5b505050506040513d6000823e3d601f19601f820116820180604052508101906118479190612d19565b50600192505050949350505050565b600080600061186486611d72565b915091508173ffffffffffffffffffffffffffffffffffffffff166339255d5b828373ffffffffffffffffffffffffffffffffffffffff1663b4b333c68a8a8a600067ffffffffffffffff8111156118bf576118be612ae7565b5b6040519080825280601f01601f1916602001820160405280156118f15781602001600182028036833780820191505090505b506040516024016119059493929190612dbc565b604051602081830303815290604052915060e01b6020820180517bffffffffffffffffffffffffffffffffffffffffffffffffffffffff8381831617835250505050600067ffffffffffffffff81111561196257611961612ae7565b5b6040519080825280601f01601f1916602001820160405280156119945781602001600182028036833780820191505090505b506040518463ffffffff1660e01b81526004016119b393929190612be2565b6000604051808303816000875af11580156119d2573d6000803e3d6000fd5b505050506040513d6000823e3d601f19601f820116820180604052508101906119fb9190612d19565b506001925050509392505050565b6000806000611a1787611d72565b915091508173ffffffffffffffffffffffffffffffffffffffff166339255d5b828373ffffffffffffffffffffffffffffffffffffffff166394229ecb8b8b8b8b600067ffffffffffffffff811115611a7357611a72612ae7565b5b6040519080825280601f01601f191660200182016040528015611aa55781602001600182028036833780820191505090505b50604051602401611aba959493929190612d62565b604051602081830303815290604052915060e01b6020820180517bffffffffffffffffffffffffffffffffffffffffffffffffffffffff8381831617835250505050600067ffffffffffffffff811115611b1757611b16612ae7565b5b6040519080825280601f01601f191660200182016040528015611b495781602001600182028036833780820191505090505b506040518463ffffffff1660e01b8152600401611b6893929190612be2565b6000604051808303816000875af1158015611b87573d6000803e3d6000fd5b505050506040513d6000823e3d601f19601f82011682018060405250810190611bb09190612d19565b50600192505050949350505050565b6000806000611bcd86611d72565b915091508173ffffffffffffffffffffffffffffffffffffffff166339255d5b828373ffffffffffffffffffffffffffffffffffffffff166362fc305e8a8a8a600067ffffffffffffffff811115611c2857611c27612ae7565b5b6040519080825280601f01601f191660200182016040528015611c5a5781602001600182028036833780820191505090505b50604051602401611c6e9493929190612b75565b604051602081830303815290604052915060e01b6020820180517bffffffffffffffffffffffffffffffffffffffffffffffffffffffff8381831617835250505050600067ffffffffffffffff811115611ccb57611cca612ae7565b5b6040519080825280601f01601f191660200182016040528015611cfd5781602001600182028036833780820191505090505b506040518463ffffffff1660e01b8152600401611d1c93929190612be2565b6000604051808303816000875af1158015611d3b573d6000803e3d6000fd5b505050506040513d6000823e3d601f19601f82011682018060405250810190611d649190612d19565b506001925050509392505050565b6000807f65599bf746e17a00ea62e3610586992d88101b78eec3cf380706621fb97ea8375491507fb969d79d88acd02d04ed7ee7d43b949e7daf093d363abcfbbc43dfdfd1ce969a549050600073ffffffffffffffffffffffffffffffffffffffff168173ffffffffffffffffffffffffffffffffffffffff1603611f7a57600073ffffffffffffffffffffffffffffffffffffffff168273ffffffffffffffffffffffffffffffffffffffff1603611e97578273ffffffffffffffffffffffffffffffffffffffff166320bc44256040518163ffffffff1660e01b8152600401602060405180830381865afa158015611e70573d6000803e3d6000fd5b505050506040513d601f19601f82011682018060405250810190611e949190612e1d565b91505b8173ffffffffffffffffffffffffffffffffffffffff1663b6d200de7fa9214cc96615e0085d3bb077758db69497dc2dce3b2b1e97bc93c3d18d83efd36040518263ffffffff1660e01b8152600401611ef09190612e9c565b602060405180830381865afa158015611f0d573d6000803e3d6000fd5b505050506040513d601f19601f82011682018060405250810190611f319190612ef5565b9050817f65599bf746e17a00ea62e3610586992d88101b78eec3cf380706621fb97ea83755807fb969d79d88acd02d04ed7ee7d43b949e7daf093d363abcfbbc43dfdfd1ce969a555b600073ffffffffffffffffffffffffffffffffffffffff168273ffffffffffffffffffffffffffffffffffffffff1603611fb757611fb6612f22565b5b600073ffffffffffffffffffffffffffffffffffffffff168173ffffffffffffffffffffffffffffffffffffffff1603611ff457611ff3612f22565b5b915091565b6000604051905090565b600080fd5b600080fd5b600073ffffffffffffffffffffffffffffffffffffffff82169050919050565b60006120388261200d565b9050919050565b600061204a8261202d565b9050919050565b61205a8161203f565b811461206557600080fd5b50565b60008135905061207781612051565b92915050565b6120868161202d565b811461209157600080fd5b50565b6000813590506120a38161207d565b92915050565b600081600b0b9050919050565b6120bf816120a9565b81146120ca57600080fd5b50565b6000813590506120dc816120b6565b92915050565b6000806000606084860312156120fb576120fa612003565b5b600061210986828701612068565b935050602061211a86828701612094565b925050604061212b868287016120cd565b9150509250925092565b60006020828403121561214b5761214a612003565b5b600061215984828501612094565b91505092915050565b6000819050919050565b61217581612162565b811461218057600080fd5b50565b6000813590506121928161216c565b92915050565b600080604083850312156121af576121ae612003565b5b60006121bd85828601612068565b92505060206121ce85828601612183565b9150509250929050565b600080604083850312156121ef576121ee612003565b5b60006121fd85828601612068565b925050602061220e858286016120cd565b9150509250929050565b612221816120a9565b82525050565b600060208201905061223c6000830184612218565b92915050565b600080fd5b600080fd5b600080fd5b60008083601f84011261226757612266612242565b5b8235905067ffffffffffffffff81111561228457612283612247565b5b6020830191508360018202830111156122a05761229f61224c565b5b9250929050565b600080602083850312156122be576122bd612003565b5b600083013567ffffffffffffffff8111156122dc576122db612008565b5b6122e885828601612251565b92509250509250929050565b6122fd8161202d565b82525050565b600060208201905061231860008301846122f4565b92915050565b60006020828403121561233457612333612003565b5b600061234284828501612068565b91505092915050565b60008115159050919050565b6123608161234b565b82525050565b600081519050919050565b600082825260208201905092915050565b60005b838110156123a0578082015181840152602081019050612385565b838111156123af576000848401525b50505050565b6000601f19601f8301169050919050565b60006123d182612366565b6123db8185612371565b93506123eb818560208601612382565b6123f4816123b5565b840191505092915050565b60006040820190506124146000830185612357565b818103602083015261242681846123c6565b90509392505050565b6000806040838503121561244657612445612003565b5b600061245485828601612068565b925050602061246585828601612094565b9150509250929050565b60006020820190506124846000830184612357565b92915050565b600081905092915050565b7f3000000000000000000000000000000000000000000000000000000000000000600082015250565b60006124cb60018361248a565b91506124d682612495565b600182019050919050565b7f2b00000000000000000000000000000000000000000000000000000000000000600082015250565b600061251760018361248a565b9150612522826124e1565b600182019050919050565b7f3100000000000000000000000000000000000000000000000000000000000000600082015250565b600061256360018361248a565b915061256e8261252d565b600182019050919050565b7f5265776172642053747265616d20557064617465640000000000000000000000600082015250565b60006125af60158361248a565b91506125ba82612579565b601582019050919050565b7f5265776172642073747265616d20686173206265656e20757064617465642e00600082015250565b60006125fb601f8361248a565b9150612606826125c5565b601f82019050919050565b600061261c826124be565b91506126278261250a565b915061263282612556565b915061263d8261250a565b9150612648826125a2565b91506126538261250a565b915061265e826125ee565b9150819050919050565b600060608201905061267d60008301866122f4565b61268a60208301856122f4565b818103604083015261269c81846123c6565b9050949350505050565b6126af81612162565b82525050565b60006060820190506126ca60008301866122f4565b6126d760208301856122f4565b6126e460408301846126a6565b949350505050565b6126f58161234b565b811461270057600080fd5b50565b600081519050612712816126ec565b92915050565b60006020828403121561272e5761272d612003565b5b600061273c84828501612703565b91505092915050565b600082825260208201905092915050565b7f466c6f7720726174652063616e277420626520757064617465642e0000000000600082015250565b600061278c601b83612745565b915061279782612756565b602082019050919050565b600060208201905081810360008301526127bb8161277f565b9050919050565b7f4e487b7100000000000000000000000000000000000000000000000000000000600052601160045260246000fd5b60006127fc826120a9565b9150612807836120a9565b9250826b7fffffffffffffffffffffff0482116000841360008413161615612832576128316127c2565b5b817fffffffffffffffffffffffffffffffffffffffff800000000000000000000000058312600084126000841316161561286f5761286e6127c2565b5b827fffffffffffffffffffffffffffffffffffffffff80000000000000000000000005821260008413600084121616156128ac576128ab6127c2565b5b826b7fffffffffffffffffffffff05821260008412600084121616156128d5576128d46127c2565b5b828202905092915050565b7f5265776172642053747265616d20437265617465640000000000000000000000600082015250565b600061291660158361248a565b9150612921826128e0565b601582019050919050565b7f5265776172642073747265616d20686173206265656e20637265617465642e00600082015250565b6000612962601f8361248a565b915061296d8261292c565b601f82019050919050565b6000612983826124be565b915061298e8261250a565b915061299982612556565b91506129a48261250a565b91506129af82612909565b91506129ba8261250a565b91506129c582612955565b9150819050919050565b60006040820190506129e460008301856122f4565b6129f160208301846126a6565b9392505050565b7f5265776172642053747265616d2044656c657465640000000000000000000000600082015250565b6000612a2e60158361248a565b9150612a39826129f8565b601582019050919050565b7f5265776172642073747265616d20686173206265656e2064656c657465642e00600082015250565b6000612a7a601f8361248a565b9150612a8582612a44565b601f82019050919050565b6000612a9b826124be565b9150612aa68261250a565b9150612ab182612556565b9150612abc8261250a565b9150612ac782612a21565b9150612ad28261250a565b9150612add82612a6d565b9150819050919050565b7f4e487b7100000000000000000000000000000000000000000000000000000000600052604160045260246000fd5b6000819050919050565b6000612b3b612b36612b318461200d565b612b16565b61200d565b9050919050565b6000612b4d82612b20565b9050919050565b6000612b5f82612b42565b9050919050565b612b6f81612b54565b82525050565b6000608082019050612b8a6000830187612b66565b612b9760208301866122f4565b612ba46040830185612218565b8181036060830152612bb681846123c6565b905095945050505050565b6000612bcc82612b42565b9050919050565b612bdc81612bc1565b82525050565b6000606082019050612bf76000830186612bd3565b8181036020830152612c0981856123c6565b90508181036040830152612c1d81846123c6565b9050949350505050565b600080fd5b612c35826123b5565b810181811067ffffffffffffffff82111715612c5457612c53612ae7565b5b80604052505050565b6000612c67611ff9565b9050612c738282612c2c565b919050565b600067ffffffffffffffff821115612c9357612c92612ae7565b5b612c9c826123b5565b9050602081019050919050565b6000612cbc612cb784612c78565b612c5d565b905082815260208101848484011115612cd857612cd7612c27565b5b612ce3848285612382565b509392505050565b600082601f830112612d0057612cff612242565b5b8151612d10848260208601612ca9565b91505092915050565b600060208284031215612d2f57612d2e612003565b5b600082015167ffffffffffffffff811115612d4d57612d4c612008565b5b612d5984828501612ceb565b91505092915050565b600060a082019050612d776000830188612b66565b612d8460208301876122f4565b612d9160408301866122f4565b612d9e6060830185612218565b8181036080830152612db081846123c6565b90509695505050505050565b6000608082019050612dd16000830187612b66565b612dde60208301866122f4565b612deb60408301856122f4565b8181036060830152612dfd81846123c6565b905095945050505050565b600081519050612e178161207d565b92915050565b600060208284031215612e3357612e32612003565b5b6000612e4184828501612e08565b91505092915050565b6000819050919050565b6000819050919050565b60008160001b9050919050565b6000612e86612e81612e7c84612e4a565b612e5e565b612e54565b9050919050565b612e9681612e6b565b82525050565b6000602082019050612eb16000830184612e8d565b92915050565b6000612ec28261202d565b9050919050565b612ed281612eb7565b8114612edd57600080fd5b50565b600081519050612eef81612ec9565b92915050565b600060208284031215612f0b57612f0a612003565b5b6000612f1984828501612ee0565b91505092915050565b7f4e487b7100000000000000000000000000000000000000000000000000000000600052600160045260246000fdfea264697066735822122006a6d5108ddf8dcfde693780a5a109d1f0e7c70d0ab7fe4ca97f13d510b375cb64736f6c634300080e0033",
	"linkReferences": {},
	"deployedLinkReferences": {}
}